S01300007461626C65742D74656D702E73726563B2
S113000095C00000B0C00000AEC00000ACC000004D
S1130010AAC00000A8C00000A6C00000A4C0000040
S1130020A2C00000A0C000009EC0000060C7000085
S11300300C941A0898C0000096C0000094C00000F8
S113004092C0000090C000008EC000008CC0000070
S11300508AC0000088C0000086C0000084C0000080
S113006082C0000080C000007EC000007CC0000090
S11300707AC0000012037400610062002000740062
S1130080650073007400000008036A0070006500D6
S113009000000403090409025F00030100C0FA0818
S11300A00B00020202010009040000010202010027
S11300B00524001001042402060524060001070596
S11300C082030800FF09040100020A00000007057A
S11300D0040210000507058302100005090402004C
S11300E00103010200092111010001222400070576
S11300F0810308000512011001EF02010866667B06
S11301007201000102DC0105010902A1010901A13A
S11301100005010930093116000026FF7F36000072
S113012046FF7F751095028102C0C00011241FBED6
S1130130CFEFD2E0DEBFCDBF11E0A0E0B1E0EAEC4A
S1130140FDE102C005900D92A834B107D9F721E072
S1130150A8E4B1E001C01D92A935B207E1F70E94FD
S1130160170A0C94E30E4CCF292F33272330310583
S1130170C9F038F42130310559F02230310569F0E5
S113018035C02132310541F12232310551F12EC001
S113019082E190E025EF30E032C08FE590E026E97F
S11301A030E02DC099278130910551F018F0029765
S11301B069F021C0E2E9F0E0849190E09F011FC062
S11301C0E8E8F0E0849190E09F0119C0E4E7F0E0F2
S11301D0849190E09F0113C089E090E025EE30E027
S11301E00EC084E290E027E031E009C080E090E0B6
S11301F020E030E004C080E090E020E030E0FA014C
S1130200318320830895CF93DF93EC01FC01709632
S11302108BE0DF011D928A95E9F782E08C83898760
S113022083E08E8761E0CE0101966AD5882351F080
S113023061E0CE01069664D5882321F061E0CE0109
S11302400B965ED5DF91CF910895FC0190915001FA
S1130250943009F584899589A689B789892B8A2BD5
S11302608B2BD9F081818F708093E9008091F2000B
S11302708823B1F0E8EEF0E0908180818E7780836E
S113028095FD0DC0B0D581110BC0E8EEF0E0908172
S11302909E779083089582E0089582E0089580E037
S11302A00895FC0190915001943091F484899589CA
S11302B0A689B789892B8A2B8B2B51F081818F706A
S11302C08093E9008091E80080FF02C0CF01BDCF98
S11302D0089520915001243039F5FC014489558951
S11302E066897789452B462B472B09F186818F70C8
S11302F08093E9008091E80082FF1CC08091F200A5
S1130300882321F02091F10030E002C02FEF3FEF6D
S11303108091F200811111C0E8EEF0E080818B77CA
S11303208083822F932F08958FEF9FEF08958FEF8F
S11303309FEF08958FEF9FEF0895822F932F0895D5
S11303400895CF93DF93FC019091E80093FF97C049
S1130350208130E0809155019091560182179307D6
S113036009F08DC0EF0180915201813259F018F4E7
S11303708032B9F184C0823209F45FC0833209F457
S113038070C07DC080915101813A09F078C0E8EED7
S1130390F0E08081877F8083808180FFFDCF8C891E
S11303A09D89AE89BF89E1EFF0E08083492F5A2F00
S11303B06B2F77274083AD016627772740838B2FE8
S11303C09927AA27BB278083888D8083898D808382
S11303D08A8D8083E8EEF0E080818E778083DFD49D
S11303E04EC080915101813209F049C0E8EEF0E03D
S11303F08081877F808305C080915001882309F420
S11304003EC0808182FFF8CFE1EFF0E030812081AF
S1130410908180813C8B2D8B9E8B8F8B8081888FEC
S11304208081898F80818A8FE8EEF0E080818B77EC
S11304308083B5D4CE0184DF22C080915101813202
S1130440F1F4E8EEF0E08081877F8083A8D4809186
S1130450530190915401998B888BCE010E94890C91
S11304600EC080915101813251F4E8EEF0E08081B8
S1130470877F808394D460915301CE0161DFDF9143
S1130480CF9108953F924F925F926F927F928F9295
S11304909F92AF92BF92CF92DF92EF92FF920F930F
S11304A01F93CF93DF9300D01F92CDB7DEB76C01BB
S11304B0EDB6FEB68091E80083FF17C1F601808196
S11304C090E020915501309156012817390709F021
S11304D00CC180915201833009F4A4C030F48130FE
S11304E071F0823009F4E6C000C18A3009F4C6C054
S11304F08B3009F4AFC0893009F0F7C054C0809143
S11305005101813A09F0F1C0ADB6BEB61A82198222
S1130510E1E5F1E0828113818B83F6018085482F28
S113052050E08DB79EB7841B950B0FB6F8949EBF11
S11305300FBE8DBFEDB7FEB731964F0160E070E09E
S1130540CF010E94DC0E4FEF410F8E010F5F1F4F52
S11305509401BE016D5F7F4FC6010E94CA0AF60175
S113056086819781009729F0408550E0B4010E946C
S1130570D30E1092E900E8EEF0E08081877F80835B
S11305808B8181118093F10069817A81C401F7D153
S1130590E8EEF0E080818B7780830FB6F894BEBEDE
S11305A00FBEADBEA2C080915101813209F09DC041
S11305B06DB67EB6E1E5F1E0068117815280438095
S11305C08DB79EB7801B910B0FB6F8949EBF0FBEDC
S11305D08DBFEDB7FEB731964F010F2EF8EEAF2E5B
S11305E0B12CF02DF5018081877F8083B801C4018F
S11305F03FD2F50180818E77808321E0511001C0C4
S113060020E030E0021B130B280D391D4FEF440D81
S1130610652DC6010E94880C0FB6F8947EBE0FBEED
S11306206DBE63C080915101813A09F05EC0E8EE6D
S1130630F0E08081877F8083808180FFFDCFF60199
S113064081858093F100E8EEF0E080818E778083ED
S1130650A6D34BC080915101813209F046C0E8EE27
S1130660F0E08081877F80839AD39091530181E069
S1130670911101C080E0F601818737C0809151015A
S1130680813299F5E8EEF0E08081877F808387D31B
S1130690809153019091540188270024880F991F59
S11306A0001C880F991F001C892F902DF601958737
S11306B084871BC080915101813AB9F4E8EEF0E0DF
S11306C08081877F8083808180FFFDCFF6018485D0
S11306D0958596958795969587958093F100E8EE94
S11306E0F0E080818E7780835AD30FB6F894FEBEF3
S11306F00FBEEDBE0F900F900F90DF91CF911F9121
S11307000F91FF90EF90DF90CF90BF90AF909F90AC
S11307108F907F906F905F904F903F900895FC0171
S1130720399627E0DF011D922A95E9F721E0FC01C3
S1130730218724EF31E03587248723E0248361E097
S11307400196DEC208955F926F927F928F929F927C
S1130750AF92BF92CF92DF92EF92FF920F931F93CB
S1130760CF93DF9300D01F92CDB7DEB77C01ADB637
S1130770BEB680915001843009F08DC08091E400B0
S11307809091E500F701228533852817390709F48C
S113079082C081818F708093E9008091E80085FF99
S11307A07AC08DB69EB6408550E08DB79EB7841B47
S11307B0950B0FB6F8949EBF0FBE8DBFEDB7FEB775
S11307C031966F011B821A82198260E070E0CF01BA
S11307D00E94DC0E8E010F5F1F4F960140E0BE01A8
S11307E06D5F7F4FC701D6D6582EF7018485958556
S11307F0892B41F081E026853785232B09F080E0A1
S1130800782E01C0712CF70106811781011511059D
S113081099F049815A81B801C6010E94C60E662426
S11308206394892B09F4612CF701408550E0B601EB
S1130830C8010E94D30E01C0612C89819A81892B41
S1130840F1F0511004C0611002C070FE18C0F7012D
S1130850848595859787868781818F708093E90049
S11308608B8181118093F10069817A8140E050E0AD
S1130870C60129D0E8EEF0E080818E7780838091F4
S1130880E4009091E500F701938782870FB6F8940E
S11308909EBE0FBE8DBE0FB6F894BEBE0FBEADBEDB
S11308A00F900F900F90DF91CF911F910F91FF90B8
S11308B0EF90DF90CF90BF90AF909F908F907F90FC
S11308C06F905F9008958F929F92AF92BF92CF9254
S11308D0DF92EF92FF920F931F93CF93DF938C01DC
S11308E0EB016A0180D281113DC0C114D10439F0F9
S11308F0F60180819181C81BD90B080F191F20971D
S113090081F1E12CF12C0F2EF8EE8F2E912CF02D8D
S11309100F2EF1EFAF2EB12CF02DF401808185FD67
S113092013C080818E778083C114D10449F0F6010D
S113093080819181E80EF91EF182E08285E012C087
S113094052D2882351F00EC0F80181918F01F50134
S113095080832197FFEFEF1AFF0A2097F1F680E0DA
S113096001C080E0DF91CF911F910F91FF90EF9034
S1130970DF90CF90BF90AF909F908F900895EF92AB
S1130980FF921F93CF93DF93209157013091580129
S11309902617370758F06115710539F4E8EEF0E0D1
S11309A020812E7720839B0101C09B01A82FB92FA2
S11309B040E0E8EEF0E062EF70E00F2EF1EFEF2E92
S11309C0F12CF02D51E010E02BC0809150018823D0
S11309D0F1F18530F1F1808183FD3DC0808182FD9C
S11309E02FC0808180FF1CC0EB01888190E021151D
S11309F0310579F08830910560F44D91E701488321
S1130A002150310901962115310519F088309105DD
S1130A10A1F7452F089709F0412F80818E778083B5
S1130A202115310591F64111D0CF0AC080915001B2
S1130A30882399F0853099F0808183FF03C011C029
S1130A40E8EEF0E0808182FFF1CF80E00BC082E02D
S1130A5009C083E007C081E005C082E003C083E0F1
S1130A6001C081E0DF91CF911F91FF90EF90089535
S1130A70CF93DF936115710531F5E8EEF0E08081E5
S1130A808B7780833CC080915001882309F43EC059
S1130A90853009F43DC0808183FD3CC0808182FFA4
S1130AA0F2CF44C0E90188818D936150710921F02E
S1130AB0EA0188818111F6CF80818B77808361156B
S1130AC0710549F41CC0A82FB92FE8EEF0E042EFFD
S1130AD050E021EF30E0809150018823E9F0853027
S1130AE0E9F0808183FD1CC0808182FD1FC0CBCFD3
S1130AF0809150018823B1F0853019F415C0E8EED7
S1130B00F0E0808180FFF4CF80E015C082E013C064
S1130B1083E011C081E00FC082E00DC083E00BC010
S1130B2081E009C082E007C083E005C0EA01888152
S1130B308111B8CFC1CFDF91CF910895EF92FF9289
S1130B401F93CF93DF9320915701309158012617BB
S1130B50370758F06115710539F4E8EEF0E02081AB
S1130B602E7720839B0101C09B01E82FF92F60E0C1
S1130B70A8EEB0E042EF50E00F2EF1EFEF2EF12C93
S1130B80F02D71E010E02EC080915001882309F40B
S1130B9040C0853009F43FC08C9183FD3EC08C91E8
S1130BA082FD30C08C9180FF1DC0EA01888190E0F5
S1130BB02115310581F08830910568F46491E701CD
S1130BC0688331962150310901962115310519F0B8
S1130BD08830910599F7672F089709F0612F8C9158
S1130BE08E778C932115310579F66111CDCF0AC02A
S1130BF080915001882399F0853099F0808183FF9A
S1130C0003C011C0E8EEF0E0808182FFF1CF80E004
S1130C100BC082E009C083E007C081E005C082E028
S1130C2003C083E001C081E0DF91CF911F91FF9069
S1130C30EF9008958F929F92BF92CF92DF92EF929E
S1130C40FF920F931F93CF93DF93853070F126C0EB
S1130C50292F2F70E7012883891731F0E801788163
S1130C602081E401588103C0242F762F5B2D21FFBE
S1130C7012C03C913E7F3C9330813D7F30833C9158
S1130C8031603C93E80178832083E4015883E601D2
S1130C902881222344F49F5F9530D1F68F7080938E
S1130CA0E90081E021C080E01FC0982F9F709093DD
S1130CB0E900982F242F762F50E0ABEEB0E0EDEE54
S1130CC0F0E00CEE10E00F2EF0EF8F2E912CF02DB3
S1130CD00F2EFEEECF2ED12CF02D0F2EF9EEEF2E8F
S1130CE0F12CF02DB12CC3CFDF91CF911F910F9137
S1130CF0FF90EF90DF90CF90BF909F908F900895DA
S1130D00EF92FF920F931F93CF93DF936623E9F142
S1130D10062FC82FD92F10E00F2EF6E0FF2EF02D4E
S1130D206894EE24E1F85881552349F19C81E981C6
S1130D30FA816B81852F8F70853048F5923010F4DD
S1130D404E2D01C04F2DE930F10550F028E030E080
S1130D5090E09F5F220F331F2E173F07D0F301C08F
S1130D6090E09295907F492B6295660F660F607CA8
S1130D70551F5527551F652B5DDF882349F01F5FDD
S1130D8025960113D0CF81E003C081E001C080E04B
S1130D90DF91CF911F910F91FF90EF900895809173
S1130DA05101882344F0E8EEF0E014C08091500132
S1130DB0811103C00895E8EEF0E0808182FFF6CF50
S1130DC0E8EEF0E080818B77808308958091500174
S1130DD0882341F0808180FFF9CFE8EEF0E0808144
S1130DE08E77808308950F931F93CF93DF93209181
S1130DF0E4003091E50065E6ACEEB0E0E8EEF0E04A
S1130E000BEE10E044EE50E001C09C019C91892F50
S1130E10817090FD1DC020C080915001882381F015
S1130E20853081F0E801888185FD0EC0EA01888162
S1130E3099812817390751F3615039F784E00FC0BD
S1130E4082E00DC083E00BC081E009C080E007C0F0
S1130E50808180FFE1CFFACF908192FFDDCFDF91D7
S1130E60CF911F910F9108953CD03ED0E8EDF0E072
S1130E7080818F77808380818068808380818F7D6B
S1130E80808384E089BD86E089BD09B400FEFDCF7E
S1130E901092500110924C0110924E0110924D018B
S1130EA042E060E080E0C6DEE1EEF0E080818E7F2B
S1130EB08083E2EEF0E080818160808380818860BD
S1130EC08083E0EEF0E080818E7F80830895E3E606
S1130ED0F0E080818E7F808381E080934F01C4CFD6
S1130EE008951092E20008951092E10008951F926F
S1130EF00F920FB60F9211242F933F934F935F934A
S1130F006F937F938F939F93AF93BF93EF93FF93CD
S1130F108091E10082FF0AC08091E20082FF06C056
S1130F20E1EEF0E080818B7F8083BDD28091E1008F
S1130F3080FF15C08091E20080FF11C0E2EEF0E076
S1130F4080818E7F8083808180618083E8EDF0E002
S1130F5080818062808319BC109250018DD280916F
S1130F60E10084FF2FC08091E20084FF2BC084E065
S1130F7089BD86E089BD09B400FEFDCFE8EDF0E04F
S1130F8080818F7D8083E1EEF0E080818F7E80839D
S1130F90E2EEF0E080818F7E8083808181608083B7
S1130FA080914C01882321F084E08093500109C092
S1130FB08091E300882314F081E001C083E08093F2
S1130FC0500159D28091E10083FF23C08091E20057
S1130FD083FF1FC0E1EEF0E08081877F808382E0A1
S1130FE08093500110924C0180818E7F8083E2EEC9
S1130FF0F0E080818E7F808380818061808342E005
S113100060E080E017DEE0EFF0E0808188608083BC
S1131010DAD1FF91EF91BF91AF919F918F917F9121
S11310206F915F914F913F912F910F900FBE0F9051
S11310301F9018951F920F920FB60F921124EF92E2
S1131040FF920F931F932F933F934F935F936F934D
S11310507F938F939F93AF93BF93CF93DF93EF933C
S1131060FF93C091E900CF708091EC00D82FD1702C
S113107080FDD0E80F2EF9EEEF2EF12CF02DF701C4
S1131080108200EF10E0F8018081877F80837894DC
S113109021D0F7011082F801808188608083CD2BF4
S11310A0CF70F701C083FF91EF91DF91CF91BF9192
S11310B0AF919F918F917F916F915F914F913F91EC
S11310C02F911F910F91FF90EF900F900FBE0F90F3
S11310D01F9018950F931F93CF93DF93CDB7DEB76F
S11310E0AA970FB6F894DEBF0FBECDBFE1E5F1E0DD
S11310F029E531E0A1EFB0E08C9181932E173F07F1
S1131100D9F7C8D18091E80083FF38C1E1E5F1E067
S113111090818181853009F47FC030F48130C9F138
S113112068F08330B1F12AC1883009F4F2C0893003
S113113009F4FFC0863009F021C191C0903821F034
S1131140923809F01BC108C080914D0190914E0165
S1131150992389F082600FC0809155018F7085308A
S113116008F00CC1E9EEF0E080838091EB0085FB90
S1131170882780F91082E8EEF0E09081977F9083D1
S1131180A1EFB0E08C931C9280818E77808307DE80
S1131190F5C0992309F401C1923009F0EFC002C1EE
S11311A091E0833009F090E090934E012CC080913F
S11311B055018F709FEF980F943008F0DFC0809333
S11311C0E9009091EB0090FF1EC090915201933082
S11311D031F4EBEEF0E080818062808314C0EBEEAA
S11311E0F0E090819061908321E030E0A90102C099
S11311F0440F551F8A95E2F7AAEEB0E04C931C9277
S11312008081886080831092E900E8EEF0E08081BC
S1131210877F8083C4DDB2C09111B0C010915301A7
S11312201F77E3EEF0E080818078812B8083E8EE05
S1131230F0E08081877F8083B2DDE8EEF0E080819A
S113124080FFFDCFE3EEF0E08081806880831111A0
S113125002C082E001C083E0809350018FC09058A7
S1131260923008F08BC080915301909154018C3DD1
S113127053E0950799F583E08A838AE289835FB70F
S1131280F894DE01139620E03EE041E2E32FF0E023
S113129040935700849120FF03C082958F703F5F75
S11312A08F708A3018F090E0C79602C090E0C09624
S11312B08D939D932F5F243149F75FBF08EE10E0B3
S11312C0F8018081877F80836AE270E0CE01019615
S11312D056DBF80180818B77808350C06091550183
S11312E070915601AE014F5F5F4F0E94B400BC0184
S11312F0892B09F443C008EE10E0F8019081977F30
S1131300908389819A811ADCF80180818B778083AC
S113131035C0903899F5E8EEF0E08081877F8083CE
S113132080914C018093F10080818E77808337DD3A
S113133025C0911123C080915301909154019927A4
S11313400297E4F4E8EEF0E08081877F8083809167
S1131350530180934C0123DD80914C01882321F0BB
S113136084E08093500109C08091E300882314F045
S113137081E001C084E0809350017FD08091E80037
S113138083FF16C0E8EEF0E08081877F8083EBEE78
S1131390F0E08081806280830BC090915301913092
S11313A069F7FECE80915301882309F400CF2BCF37
S11313B0AA960FB6F894DEBF0FBECDBFDF91CF91D2
S11313C01F910F9108950895CF9380915001882320
S11313D099F0C091E900CF708091EC00982F917042
S11313E080FD90E8C92B1092E9008091E80083FD0C
S11313F071DECF70C093E900CF91089584B7877FE1
S113140084BF0FB6F894A89580916000886180939A
S11314106000109260000FBE90E080E80FB6F89470
S113142080936100909361000FBE51CD0895E6DF73
S1131430789484B1876184B92C9A85B1897F85B900
S1131440289A81E58CBD8AB18FEF8AB98BB1886700
S11314508BB98BB188778BB93A9A429880E191E045
S11314600E94690180E191E00E94510180E091E0D5
S11314706AD9AADFF3CF0895089580E091E04FD9A7
S113148080E191E00E940301E2EEF0E0808184605B
S11314908083089580E191E00E94A10180E091E0C1
S11314A00C944202089580910E0190910F010097CF
S11314B029F0019790930F0180930E0108958BB941
S11314C080E15F9A000000000000000000000000BE
S11314D0000000000000000000005F980000000011
S11314E000000000000000000000000000000000F8
S11314F000005F9A000000000000000000000000EF
S1131500000000000000000000005F9800000000E0
S113151000000000000000000000000000000000C7
S1131520000000005F9A00000000000000000000BE
S11315300000000000000000000000005F980000B0
S113154000000000000000000000000000008150C6
S113155009F0B7CF5E9A429A00000000429880E1F9
S113156000008150E9F72C985E981EBC00000DB471
S113157007FEFDCF8EB590E0982F88271EBC000093
S11315800DB407FEFDCF2EB5822B969587952C9A28
S11315909F7008952F923F924F925F926F927F9225
S11315A08F929F92AF92BF92CF92DF92EF92FF926F
S11315B00F931F93CF93DF93CDB7DEB727970FB663
S11315C0F894DEBF0FBECDBF3A8329831E830D83FB
S11315D08091450190914601F90191838083809126
S11315E043019091440193838283F8941F82C12C18
S11315F0D12C7601212C312C21011B820DE010E02D
S1131600612C0F2EFEE07F2EF02D09C09F8190FFEC
S113161004C0E72DE91BEB8302C0FF81FB83F801C3
S11316208B81E81BF109EB5CFE4F808148DFA0E071
S1131630B0E09C01AD012A5331094109510922F45A
S113164020E030E040E050E02D3494E039074105DB
S1131650510524F020E030E040E050E0CA01B90137
S1131660685E734F8F4F9F4F78D3862E972EA82E88
S1131670B92EBB2024F4812C912CA12CB12CA501D2
S11316809401E9E58E16E7E39E06EFE3AE06B104A6
S113169024F028E537E34FE3562D220E331E441E73
S11316A0551EFB816F2F70E080E090E056D3C60E8C
S11316B0D71EE81EF91E8F818F5F8F838E3009F04D
S11316C0A5CFC701B6012AD26B017C01C201B101C9
S11316D025D29B01AC01C701B60185D120E030E0E1
S11316E040E05FE317D125E539EA4AE255E4CAD27E
S11316F06B017C0120E030E0A90171D188239CF0CA
S113170020E03EEF4FEF56E4C701B601B7D21816FA
S11317106CF40F2EC12CFEEFDF2EEE24EA94F6E4D7
S1131720FF2EF02D03C0C12CD12C7601C701B601C8
S1131730C2D17C836B83FB01FF2314F41C821B82C4
S11317401F82C12CD12C7601812C912C5401612C47
S11317500F2EFAE07F2EF02D07C08F8180FF03C08B
S1131760672C681A01C06F80E9E0F0E0E619F1091E
S1131770E55DFE4F8081A3DEA0E0B0E09C01AD01F9
S11317802A5331094109510922F420E030E040E0B4
S113179050E02D3494E039074105510524F020E050
S11317A030E040E050E0CA01B901685E734F8F4FEA
S11317B09F4FD3D2062F172F282F392F332324F4EA
S11317C000E010E020E030E0A90198012935E7E3CA
S11317D03E07EFE34E07510524F028E537E34FE3D6
S11317E050E0820E931EA41EB51E662D70E080E0AC
S11317F090E0B3D2C60ED71EE81EF91EFF81FF5F2C
S1131800FF83FA3009F0A9CFC701B60187D16B0174
S11318107C01C501B40182D19B01AC01C701B601B1
S1131820E2D020E030E040E05FE374D020E03EEF1F
S11318304FE755E427D26B017C0120E030E0A90199
S1131840CED088239CF020E03EEF4FEF56E4C70152
S1131850B60114D218166CF40F2EC12CFEEFDF2E35
S1131860EE24EA94F6E4FF2EF02D03C0C12CD12C13
S11318707601C701B6011FD1772314F460E070E04C
S11318808B819C8190934601809345017093440120
S1131890609343019BEA291694EA39069CE04906C1
S11318A0510444F0EBEA8E16E4EA9E06ECE0AE0640
S11318B0B10434F4ED81FE811182108280E00FC006
S11318C08B819C81E981FA81918380837383628314
S11318D084E090E0ED81FE819183808381E027960E
S11318E00FB6F894DEBF0FBECDBFDF91CF911F912D
S11318F00F91FF90EF90DF90CF90BF90AF909F90AB
S11319008F907F906F905F904F903F902F900895AD
S1131910089508955058BB27AA270ED075C166D1E3
S113192030F06BD120F031F49F3F11F41EF45BC111
S11319300EF4E095E7FB51C1E92F77D180F3BA1794
S1131940620773078407950718F071F49EF58FC139
S11319500EF4E0950B2EBA2FA02D0B01B9019001C6
S11319600C01CA01A0011124FF27591B99F0593F0A
S113197050F4503E68F11A16F040A22F232F342F52
S11319804427585FF3CF469537952795A795F040A0
S11319905395C9F77EF41F16BA0B620B730B840BB5
S11319A0BAF09150A1F0FF0FBB1F661F771F881F6D
S11319B0C2F70EC0BA0F621F731F841F48F48795C5
S11319C077956795B795F7959E3F08F0B3CF9395B4
S11319D0880F08F09927EE0F979587950895D9D029
S11319E008F481E008950CD00FC107D140F0FED077
S11319F030F021F45F3F19F0F0C0511139C1F3C048
S1131A0014D198F39923C9F35523B1F3951B550BBE
S1131A10BB27AA2762177307840738F09F5F5F4FBD
S1131A20220F331F441FAA1FA9F333D00E2E3AF0FE
S1131A30E0E830D091505040E695001CCAF729D018
S1131A40FE2F27D0660F771F881FBB1F2617370767
S1131A504807AB07B0E809F0BB0B802DBF01FF2797
S1131A6093585F4F2AF09E3F510568F0B6C000C1FD
S1131A705F3FECF3983EDCF3869577956795B795D1
S1131A80F7959F5FC9F7880F911D9695879597F9EC
S1131A900895E1E0660F771F881FBB1F6217730765
S1131AA08407BA0720F0621B730B840BBA0BEE1F7A
S1131AB088F7E095089504D06894B111D9C00895C9
S1131AC0BCD088F09F5790F0B92F9927B751A0F058
S1131AD0D1F0660F771F881F991F1AF0BA95C9F7BE
S1131AE012C0B13081F0C3D0B1E00895C0C0672FF7
S1131AF0782F8827B85F39F0B93FCCF3869577956E
S1131B006795B395D9F73EF4909580957095619556
S1131B107F4F8F4F9F4F0895E89409C097FB3EF481
S1131B2090958095709561957F4F8F4F9F4F992326
S1131B30A9F0F92F96E9BB279395F69587957795A4
S1131B406795B795F111F8CFFAF4BB0F11F460FF64
S1131B501BC06F5F7F4F8F4F9F4F16C0882311F0BC
S1131B6096E911C0772321F09EE8872F762F05C0D0
S1131B70662371F096E8862F70E060E02AF09A956B
S1131B80660F771F881FDAF7880F9695879597F960
S1131B900895990F0008550FAA0BE0E8FEEF1616FA
S1131BA01706E807F907C0F012161306E407F5074D
S1131BB098F0621B730B840B950B39F40A2661F0C1
S1131BC0232B242B252B21F408950A2609F4A14064
S1131BD0A6958FEF811D811D089597F99F6780E871
S1131BE070E060E008959FEF80EC089500240A946B
S1131BF01616170618060906089500240A941216E4
S1131C001306140605060895092E0394000C11F416
S1131C10882352F0BB0F40F4BF2B11F460FF04C0C3
S1131C206F5F7F4F8F4F9F4F089557FD9058440F1C
S1131C30551F59F05F3F71F04795880F97FB991F27
S1131C4061F09F3F79F087950895121613061406E4
S1131C50551FF2CF4695F1DF08C016161706180671
S1131C60991FF1CF86957105610508940895E8944C
S1131C70BB2766277727CB0197F908958ADF08F4F5
S1131C808FEF08950AD0C0CFB1DF28F0B6DF18F087
S1131C90952309F0A2CFA7CFEBCFC7DFA8F39923F1
S1131CA0D9F35523C9F3950F50E0551FAA27EE2702
S1131CB0FF27BB2700240894679520F4E20FF31F45
S1131CC0B41F0A1E220F331F441FAA1F6695A9F7CB
S1131CD0779530F4F30FB41F0A1E121E08F46395AF
S1131CE0330F441FAA1F221F769599F7879520F476
S1131CF0B40F0A1E121E631F440FAA1F221F331F94
S1131D008695A9F7862F712D602D11249F57504079
S1131D108AF0E1F088234AF0EE0FFF1FBB1F661F15
S1131D20771F881F91505040A9F79E3F510570F0CE
S1131D3054CF9ECF5F3FECF3983EDCF386957795C6
S1131D406795B795F795E7959F5FC1F7FE2B880FC9
S1131D50911D9695879597F90895EE27FF27AA2751
S1131D60BB2708C0A20FB31FE41FF51F220F331FA8
S1131D70441F551F969587957795679598F37040FE
S1131D80A9F7009799F7BD01CF010895FB01DC0184
S1131D9004C08D910190801921F441505040C8F73E
S1131DA0881B990B0895FB01DC0102C001900D9280
S1131DB041505040D8F70895DC0101C06D93415063
S10D1DC05040E0F70895F894FFCFB7
S1131DCA028108000001480104000000000000002C
S1131DDA00831000000104100000018208000001C1
S1131DEA00000000000000000000003330313235EA
S1131DFA3736342B281D1F1E1C1B18191A2D2F2E7B
S10B1E0A2C2A29FF3FFF3F00D1
S9030000FC
